:100000000C940F010C9437010C9437010C943701B8
:100010000C9437010C9437010C9437010C94370180
:100020000C9437010C9437010C9437010C94370170
:100030000C9437010C9437010C94540B0C94050C60
:100040000C9437010C9437010C9437010C94370150
:100050000C9437010C9437010C9437010C94370140
:100060000C9437010C9437010C94E20A0C94BC0AEE
:100070000C9437010C9437010C9437010C94370120
:100080000C9437010C9437010C9437010C94370110
:100090000C94580A0C942E0B0C94080B0C943701FA
:1000A00007634236B79BD8A71A39685618AEBAAB61
:1000B000558C1D3CB7CC5763BD6DEDFD753EF617F5
:1000C0007231BF000000803F08000000BE9224494A
:1000D000123EABAAAA2ABECDCCCC4C3E000000807A
:1000E000BEABAAAAAA3E00000000BF000000803FED
:1000F0000000000000084178D3BB4387D1133D19AD
:100100000E3CC3BD4282AD2B3E68EC8276BED98FD9
:10011000E1A93E4C80EFFFBE01C4FF7F3F0000001D
:10012000000000407A10F35A00A0724E1809001027
:10013000A5D4E80000E87648170000E40B5402005C
:1001400000CA9A3B000000E1F50500008096980087
:10015000000040420F000000A086010000001027B0
:1001600000000000E8030000000064000000000040
:100170000A00000000000100000000002C76D88872
:10018000DC674F0823DFC1DFAE59E1B1B796E5E385
:10019000E453C63AE651997696E8E6C28426EB899E
:1001A0008C9B62ED407C6FFCEFBC9C9F40F2BAA53B
:1001B0006FA5F490055A2AF75C936B6CF9676DC1D3
:1001C0001BFCE0E40D47FEF520E6B500D0ED902ED7
:1001D0000300943577050080841E080000204E0A35
:1001E000000000C80C333333330F986E1283114173
:1001F000EF8D2114893BE65516CFFEE6DB18D1843E
:100200004B381BF77C1D901DA4BBE4242032847264
:100210005E228100C9F124ECA1E53D27C50C112423
:100220001FBECFEFCDBFDFE3DEBF2AE2AAE0B8E218
:1002300001C01D92AB3EB207E1F718E2A0E0B8E2C0
:10024000EAE2FFE302C005900D92AA30B107D9F7A8
:1002500011E0CFE0D1E004C02197FE010E94241CF0
:10026000CE30D107C9F70E94390D0C94151E0C949D
:100270000000CF92DF92EF92FF92A091DB2A50E034
:1002800081115A2FE091DC2AC090E12AD090E22A15
:10029000E090E32AF090E42AE630F8F4F0E0B0963B
:1002A00085E0EE0FFF1F8A95E1F730E020E0408502
:1002B000B90190E080E04A2345130AC02F5F3F4F09
:1002C0006C157D058E059F0590F36FEF7FEFCB01D9
:1002D000FF90EF90DF90CF900895F0E0E0E0E5CF61
:1002E000FC0154894589252F30E0842F90E0821B42
:1002F000930B541710F0CF96089501970895FC01C1
:1003000092898389981761F0A389AE0FBF2FB11D21
:1003100059968C9193899F5F9F73938B90E008957A
:100320008FEF9FEF0895FC0192898389981731F030
:100330008389E80FF11D818D90E008958FEF9FEF85
:100340000895FC0192892389892F90E0805C9F4F5A
:10035000821B91098F7399270895CF93DF93EC0146
:10036000E881F9810680F781E02D0995EC85FD850E
:1003700086818F738683EC85FD8585818F75858366
:100380008B898A8B198ADF91CF910895CF93DF9360
:10039000FC0194898589C485D585981306C08D8113
:1003A0008F7D8D83DF91CF910895A589AE0FBF2FEB
:1003B000B11DA75ABF4F2C91858990E001968F738C
:1003C0009927858B80E48C83A485B58512962C9320
:1003D000948985899813E6CFA485B58515968C9167
:1003E00015978F7D15968C9387898823D9F2808DF8
:1003F00080931301178AD6CFDC011C96ED91FC91F6
:100400000FB607FE03C0258125FD04C0248125FD0C
:100410000C94C6010895EF92FF920F931F93CF9310
:10042000DF93EC0181E0898B9C898D8998131CC036
:10043000AC85BD8514968C91149785FF15C01296D6
:100440006C93AC85BD8580E414968C93EC85FD851A
:1004500085818F7D858381E090E0DF91CF911F9131
:100460000F91FF90EF9008958091110180FF08C0D7
:1004700080911301888F8E898093130181E08F8B87
:10048000F62E0C8910E00F5F1F4F0F731127E02E1F
:100490008D898E1104C0CE010E94FC01F9CFEC8938
:1004A000EC0FFD2FF11DE75AFF4FF0820C8BEC850E
:1004B000FD8585818062CECFCF93DF93FC012189BA
:1004C0002223C9F0EC018091110180FF08C08091C6
:1004D0001301808F86898093130181E0878BEC85DF
:1004E000FD85858185FD03C0848186FD04C0CE0124
:1004F0000E94FC01F4CFDF91CF910895CF93DF9359
:1005000090E0FC01E254F34820812F3F71F0FC01A0
:10051000EC55F348A08130E2A39FD0011124BC5FC9
:100520006130710529F411962C93DF91CF910895D4
:10053000885B9348EC01E881EF3F89F0CD0140965C
:10054000E80FF92FF11D9FB7F89412962C93808134
:100550006230710539F4886080839FBFE6CFF0E098
:10056000E0E0F1CF877FF8CF282F30E0F901E25D9E
:10057000F348E081EE2309F1E13021F0F0F0E630BC
:1005800098F008954091010A285B3348F9012081D1
:100590002C5F81E090E001C0880F2A95EAF78095F2
:1005A00084238093010A089580E1E89FF0011124DB
:1005B000E05AF54F81818F7E81830895FF920F93DA
:1005C0001F93CF93DF93082F10E0F801E254F34814
:1005D000F0809FEFF916A1F0EB018B3210F40E942E
:1005E000B402F801EC55F348E08180E2E89FF001A5
:1005F0001124FC5F80818F2159F0CD2B39F4F682D4
:10060000DF91CF911F910F91FF900895F582F8CF60
:10061000D801A85BB3488C91309771F08F3F61F09F
:100620007096E80FF11D9FB7F8948081CD2B39F4B7
:10063000877F80839FBFE4CFF0E0E0E0F4CF886065
:10064000F8CF8B3210F40C947E020895CF92DF9293
:10065000EF92FF920F931F93CF93DF93EC016A0108
:100660007B01022F8989882339F0E881F98102888A
:10067000F389E02DCE01099598898091E205892BB7
:100680008093E2051FB7F89460E070E281EA97E09A
:10069000A70196010E94DB1B69017A018FEFC81A3E
:1006A000D80AE80AF80AF694E794D794C794EC8538
:1006B000FD8586818D7F8683EC85FD858681868399
:1006C000198AA09123110A2E000CBB0BA7019601D9
:1006D0000E941C1C20E034E040E050E00E94FD1B22
:1006E000EC85FD85C20ED31EE41EF51EC086D186A4
:1006F000EC85FD850783EC85FD858681806C86838E
:10070000EC85FD858581806885838E8562E070E05B
:100710000E9421038F858B3220F461E070E00E94FB
:10072000DE028F8561E070E00E9421031FBFDF9130
:10073000CF911F910F91FF90EF90DF90CF90089590
:10074000CF93DF938FB7F89420913F2930914029C0
:100750004091412950914229E091BA0A9091B60AFC
:1007600090FF06C02F5F3F4F4F4F5F4FE091BA0A97
:100770008FBFA0913D29B0913E29C0913B29D091D6
:100780003C290E941319EC9F9001ED9F300D11241C
:10079000620F731F811D911DDF91CF9108958F927C
:1007A0009F92AF92BF92CF92DF92EF92FF924B0156
:1007B0005C010E94A0036B017C01A8EEB3E0A501DF
:1007C00094010E941319C60ED71EE81EF91EC61604
:1007D000D706E806F90618F40E94A003F8CF0E9495
:1007E000A0036C157D058E059F05C8F3FF90EF9063
:1007F000DF90CF90BF90AF909F908F900895CF9251
:10080000DF92EF92FF920F931F93CF93DF93CDB7B9
:10081000DEB7C054D140CDBFDEBF2FB7F894809172
:10082000432990914429A0914529B09146292FBF91
:100830004091DD2A5091DE2A6091DF2A7091E02AF2
:100840008C019D01041B150B260B370BB901A80168
:10085000403D57406105710578F48091E52AC05C00
:10086000DE4FCDBFDEBFDF91CF911F910F91FF9083
:10087000EF90DF90CF9008958093DD2A9093DE2A49
:10088000A093DF2AB093E02A1092D82A1092D72A98
:100890001092D62A1092D52A1092D42A62E070E0E3
:1008A0008091D92A0E94210361E070E080E090E00D
:1008B0000E94CF0361E070E08091D92A0E94210359
:1008C0008091D92A8B3220F470E060E00E94DE0231
:1008D0008091DA2A8551823028F58BE291E10197E7
:1008E000F1F762E070E08091D92A0E9421038091A3
:1008F000E62A90E08230910538F0880F991F880F22
:10090000991F05970197F1F7F89480E00E9439014B
:100910006F3F7F4F8F4F9F4F61F41092E52A78947D
:1009200080E09DCF64E170E080E090E00E94CF0322
:10093000D8CF81E00E9439016F3F7F4F8F4F9F4F8B
:1009400061F38E010F5F1F4F6E018FEBC81A8EEFA0
:10095000D80A780180E00E943901F7016083718331
:100960008283938381E00E943901F7016483758358
:1009700086839783F8E0EF0EF11CEC14FD0451F729
:10098000789430E020E0F801C080D180E280F380EC
:100990004481558166817781FFEFCF16DF06EF0630
:1009A000FF0631F04F3F8FEF58076807780719F4BB
:1009B0001092E52AB5CFF90183E0F595E7958A9580
:1009C000E1F7EC52F54D8081880FC416D506E60696
:1009D000F70610F180832F5F3F4F085F1F4F2832CB
:1009E000310589F64091D82A2091D42A8091D52AC0
:1009F000280F3327331F8091D62A280F311D80916D
:100A0000D72A820F932F911D99274817190681F62F
:100A100081E08093E52A23CF8160DCCFAF92BF9243
:100A2000CF92DF92EF92FF920F931F93CF93DF93BA
:100A30006C017B018B01040F151FEB015E01AE18E9
:100A4000BF08C017D10759F06991D601ED91FC910B
:100A50000190F081E02DC6010995892B79F7C50138
:100A6000DF91CF911F910F91FF90EF90DF90CF908A
:100A7000BF90AF900895FC01A485B58511968C9127
:100A8000119781FD1BC06C9182898F5F8F73938951
:100A9000981739F0A289AE0FBF2FB11D59966C93EC
:100AA000828BE756FF4F80819181009741F0DC01F6
:100AB000ED91FC910190F081E02D09948C910895C5
:100AC00081E008950F9391E09093302910922F299F
:100AD00060932D2970932E2940932C2920932B2944
:100AE00010922A291092292900932829880F80938F
:100AF000272923E030E044E050E080912C2988232E
:100B000041F02093252930932629809127298E7F33
:100B10000BC080912B29882351F0409325295093B5
:100B200026298091272981608093A70808C0809199
:100B30002C29811104C080912B29882311F38091E5
:100B40002F298823E1F380912F298330B1F28091FE
:100B50002B29882321F0809129290F9108958091D4
:100B60002F29823031F0853031F0813031F480E04E
:100B7000F4CF81E0F2CF83E0F0CF84E0EECFE0EA83
:100B8000F8E091859066918722E030E02093252956
:100B9000309326298093172910921629089581E011
:100BA000809316291092172993E09093AA089091A8
:100BB000AB0891FF10C010922329E0911429F09105
:100BC000152909958093222985E090E080932529B5
:100BD000909326290895109224298093212986E054
:100BE00090E0F4CF8F929F92AF92BF92CF92DF921C
:100BF000EF92FF92CF93DF9360342DE0720723E0F2
:100C00008207910508F454C0611525E372072CE0B2
:100C10008207910508F445C060387F448241910500
:100C200008F046C0C8E7D0E020E432E44FE050E0EE
:100C30008090002890900128A0900228B09003286E
:100C4000C501B4010E94DB1B69017A018AE0C81A60
:100C5000D108E108F108C501B40120E432E44FE015
:100C600050E00E94DB1BDE010E94131928EE33E0E6
:100C700040E050E00E94DB1BC21AD30AE40AF50AE6
:100C8000F694E794D794C794C092A608DF91CF91C9
:100C9000FF90EF90DF90CF90BF90AF909F908F909C
:100CA0000895CCE2D1E020E83AE146E050E0C0CF40
:100CB000C8EED3E020EA36E841E050E0B9CF6093D7
:100CC00012297093132908956093102970931129A4
:100CD0000895E0911229F0911329309741F0109274
:100CE0000F2910920E29099580910E29089580E010
:100CF0000895E0911029F0911129309759F0309121
:100D00000D2920910C29321728F010920D2980937B
:100D10000C29099408950895E0910D2980910C29DA
:100D2000E81730F4F0E0E457F74D808190E0089543
:100D30008FEF9FEF089590910D2980910C292FEF4F
:100D40003FEF981748F4E92FF0E0E457F74D208182
:100D500030E09F5F90930D29C901089580910C297F
:100D600090910D29891B990B0895CF92DF92EF92F4
:100D7000FF920F931F93CF93DF937C018A01EB01C6
:100D80006B01C40ED51ECC15DD0551F06991D7015C
:100D9000ED91FC910190F081E02DC7010995F3CF11
:100DA000C801DF91CF911F910F91FF90EF90DF90DD
:100DB000CF90089520910E2927FF08C021E030E050
:100DC000FC012283338390E080E0089580910F2915
:100DD000E82FF0E0E45FF74D60838F5F80930F2989
:100DE00080930E2981E090E00895DC01ED91FC9163
:100DF000008CF18DE02D61E009940F9380912529FD
:100E0000909126290197A1F480913029811112C077
:100E1000062F20E040910E296CE078E280910B28AB
:100E20000E94620510920F2910920E290F910895C9
:100E300080E0F8CF81E0F6CF60930B2810920F2965
:100E400010920E290895DC01ED91FC91048CF58D32
:100E5000E02D21E009940F938CE898E28093182903
:100E60009093192980912529909126290197C9F4F9
:100E700080913029811117C0FA014138510510F0D5
:100E8000E0E8F0E0022F862F2E2F40E070E060E0D7
:100E90000E94620510920D2980930C2990E00F9119
:100EA000089580E0F7CF81E0F5CFCF92DF92FF92F7
:100EB0000F931F93CF93DF936C01062F67E78DE7A6
:100EC0009AE20E941C07F60160818DE79AE20E9477
:100ED000DA068DE79AE20E94F5068093D32A811103
:100EE00019C0002E000C110B21E0A80167E78DE767
:100EF0009AE20E942B07F12CCF2DD0E0C017D1072A
:100F000094F48DE79AE20E949B06CC0DDD1D888348
:100F1000F394F2CF80E0DF91CF911F910F91FF907A
:100F2000DF90CF90089581E0F6CF0F931F93CF937A
:100F3000DF9300D0CDB7DEB78B01898362E0CE01AD
:100F400001960E945507882381F089819A8198270C
:100F500089279827F8018083918381E00F900F9073
:100F6000DF91CF911F910F910895F80110821182A6
:100F7000F5CF0F931F93CF93DF9300D0CDB7DEB79C
:100F80008B01898362E0CE0101960E945507882378
:100F900081F089819A81982789279827F801808391
:100FA000918381E00F900F90DF91CF911F910F916E
:100FB0000895F80110821182F5CFCB01BA010C948B
:100FC000F205E0EAF8E01382168281E08583148658
:100FD00011861092252910922629089510920D2924
:100FE00010920C2910920F2910920E298091252918
:100FF00090912629892BD9F482E090E080932529CD
:1010000090932629109224291092232910921629B0
:101010001092172910920A2810922129660F6093C6
:10102000AC0881EE8093A90881E08093A30889E64B
:1010300096E080931429909315298CE098E2809390
:101040001A2990931B2989E796E080931F29909392
:1010500020298CE898E280931C2990931D2980E830
:1010600080931E29089510920D2910920C29109238
:101070000F2910920E298091252990912629892BDC
:1010800041F562E070E086E10E947E0262E070E07D
:1010900087E10E947E028091E3058093E30581E071
:1010A00090E0809325299093262910922929109267
:1010B0002A291092302910922F2981EC8093A308BD
:1010C00060EA76E881E090E00E94F20581E080939A
:1010D000A508089590E080E00895DC01ED91FC9171
:1010E0000088F189E02D23E030E00994FB010190B4
:1010F0000020E9F73197AF01461B570B0C940E0502
:101100008F929F92AF92BF920F931F93CF93DF93D3
:10111000CDB7DEB7A197CDBFDEBF19A2423008F42C
:101120004AE08E010F5D1F4F842E912CB12CA12C13
:10113000A50194010E94DB1BE62FB901CA01EA3028
:10114000ECF4E05DD801EE938D01232B242B252BAD
:1011500079F790E080E0109729F0BD0182EE99E2E6
:101160000E947608A196CDBFDEBFDF91CF911F917F
:101170000F91BF90AF909F908F900895E95CE2CF60
:10118000CF92DF92EF92FF92CF93DF936B017C01BE
:101190006DE282EE99E20E940B02EC01662777274E
:1011A000CB016C197D098E099F094AE00E948008D5
:1011B0008C0F9D1FDF91CF91FF90EF90DF90CF902C
:1011C000089568ED7CE70C9476080F931F93CF93F6
:1011D000DF93EC010E9476088C01CE010E94E108A9
:1011E000800F911FDF91CF911F910F9108950F9361
:1011F0001F93CF93DF93EC01FB0144815581608104
:1012000071810E940E058C01CE010E94E108800FC1
:10121000911FDF91CF911F910F9108950F931F930D
:10122000CF93DF93EC0188819981009759F02A814F
:101230003B812617370730F081E0DF91CF911F9176
:101240000F9108958B016F5F7F4F0E944F1D009794
:1012500059F0888399830A831B832C813D81232B3A
:1012600059F7FC011082E8CF80E0E7CFAF92BF9240
:10127000DF92EF92FF920F931F93CF93DF9361154D
:10128000710561F4D12C8D2DDF91CF911F910F91BC
:10129000FF90EF90DF90BF90AF900895DD24D3943E
:1012A0004115510581F37A015B01EC010C811D812F
:1012B000040F151FB8010E940E09D82E882311F3C0
:1012C000288139818C819D81A701B501820F931FEF
:1012D0000E940C1E0C831D8388819981080F191FA1
:1012E000F8011082D0CFCF93DF93EC0188819981F0
:1012F000009711F00E94C61C188219821C821D8260
:101300001A821B82DF91CF910895EF92FF920F9383
:101310001F93CF93DF93CDB7DEB72897CDBFDEBF46
:101320007C01CB014AE08E010F5F1F4FB8010E9484
:101330008815F80101900020E9F73197AF01401BB3
:10134000510BB801C7010E943609811103C0C701C2
:101350000E947309C7012896CDBFDEBFDF91CF91F0
:101360001F910F91FF90EF900895CF93DF93EC01C1
:10137000FB0101900020E9F73197AF01461B570BA5
:101380000E943609811103C0CE010E947309CE016B
:10139000DF91CF910895CF93DF93EC01FB0144815E
:1013A0005581608171810E943609811103C0CE018F
:1013B0000E947309CE01DF91CF910895EF92FF92C1
:1013C0000F931F93CF93DF93EC017B018A01BA0146
:1013D0000E940E0981110BC0CE010E947309CE013B
:1013E000DF91CF911F910F91FF90EF9008950C83A3
:1013F0001D83A801B701888199810E940C1EE88194
:10140000F9818C819D81E80FF91F1082E8CFFC01E2
:10141000108211821282138214821582FB010190C4
:101420000020E9F73197AF01461B570B0C94DE09FA
:10143000FC0180819181009711F00C94C61C0895E5
:10144000EF92FF920F931F93CF93DF93CDB7DEB749
:10145000E397CDBFDEBF7C01CB01BA01F70110825B
:101460001182128213821482158242E0420F8E0191
:101470000F5F1F4F0E946A150097B1F0FC010190A9
:101480000020E9F73197AF01481B590BBC01C70198
:101490000E94DE09E396CDBFDEBFDF91CF911F91A1
:1014A0000F91FF90EF900895C7010E947309F2CF4A
:1014B0001F920F920FB60F9211242F933F934F93C9
:1014C0005F936F937F938F939F93AF93BF9340915D
:1014D0004329509144296091452970914629809172
:1014E000392990913A292091372930913829420F92
:1014F000531F611D711D2091352930913629820FAE
:10150000931F883E23E0920730F0885E93404F5F40
:101510005F4F6F4F7F4F8093392990933A294093C3
:10152000432950934429609345297093462980911B
:101530003F2990914029A0914129B09142290196DB
:10154000A11DB11D80933F2990934029A09341296B
:10155000B093422981E08093B60ABF91AF919F91E9
:101560008F917F916F915F914F913F912F910F904C
:101570000FBE0F901F9018951F920F920FB60F92EB
:1015800011242F933F934F935F936F937F938F9388
:101590009F93AF93BF93EF93FF9387E499E20E94E9
:1015A000C601FF91EF91BF91AF919F918F917F9174
:1015B0006F915F914F913F912F910F900FBE0F90C0
:1015C0001F9018951F920F920FB60F9211242F9310
:1015D0003F934F935F936F937F938F939F93AF93BB
:1015E000BF93EF93FF9387E499E20E943B05FF913D
:1015F000EF91BF91AF919F918F917F916F915F918B
:101600004F913F912F910F900FBE0F901F90189503
:101610001F920F920FB60F9211242F933F934F9367
:101620005F936F937F938F939F93AF93BF93EF934A
:10163000FF9382EE99E20E94C601FF91EF91BF9164
:10164000AF919F918F917F916F915F914F913F915A
:101650002F910F900FBE0F901F9018951F920F9211
:101660000FB60F9211242F933F934F935F936F9375
:101670007F938F939F93AF93BF93EF93FF9382EEEC
:1016800099E20E943B05FF91EF91BF91AF919F912D
:101690008F917F916F915F914F913F912F910F901B
:1016A0000FBE0F901F9018951F920F920FB60F92BA
:1016B00011242F933F934F935F936F937F938F9357
:1016C0009F93AF93BF93CF93EF93FF93C091AB08DA
:1016D000C2FF0AC0109224291092232910922229B5
:1016E00084E00E94BF0514C0C6FF2FC0809121294D
:1016F000813051F480912429E0911F29F091202913
:1017000090E0099510922129C0FF14C00E94CF05D6
:10171000FF91EF91CF91BF91AF919F918F917F9169
:101720006F915F914F913F912F910F900FBE0F904E
:101730001F90189580E48093AB0881E00E94BF055C
:101740008091AB0885FFE4CFE1CFC7FF5CC0C3FF4A
:1017500008C010922429109223291092222983E094
:10176000C0CF8091A90880668093A9088091AB08BA
:1017700081FF2CC080912329882349F08091AB08F8
:1017800084FF05C082E08093AA0881E0AACF9091EF
:101790002329809122299817A8F4E0912329809188
:1017A0001A2990911B29E80FF92FF11D8081809350
:1017B000AD08809123298F5F8093232983E0809354
:1017C000AA08A6CF82E08093AA088BCF9091242903
:1017D00080911E29981790F48091AD08E0912429FA
:1017E00020911C2930911D29E20FF32FF11D8083D8
:1017F000809124298F5F80932429E0CF86E0809315
:10180000AA0882E06ECF85E06CCF1F920F920FB6D0
:101810000F9211242F933F938F939F93EF93FF93F6
:101820008091A508982F9C70E1F08091A50894E024
:1018300082FF93E090932F298093A50881E090E0A8
:10184000809325299093262910923029FF91EF91BA
:101850009F918F913F912F910F900FBE0F901F90EE
:10186000189586FF4EC020912C2990912B298091AC
:10187000A50884FF15C080912829882379F083E08A
:101880008093A40885E080932F291092302981E06D
:1018900090E08093252990932629D8CF81E0F0CF3E
:1018A00080912A29821790F4E0912A2980912D298C
:1018B00090912E29E80FF92FF11D80818093A808BF
:1018C00080912A298F5F80932A29C0CF809129296E
:1018D000891760F484E090E080932529909326296D
:1018E0008091272981608093A708B0CF8091282913
:1018F000882329F083E08093A40881E0C4CF81E0AD
:10190000FACF87FF40C09091292980912B29981701
:10191000D8F48091A808E0912929209118293091C4
:101920001929E20FF32FF11D8083809129298F5F00
:101930008093292990912B29809129298917D8F4FE
:1019400082E08093A40882CF80912829882389F09F
:1019500087E08093A40882E080932F291092302999
:1019600081E090E0809325299093262910922B29DD
:101970006DCF85E0EECF80912829882311F087E094
:10198000BACF85E0B8CF86E07ECFCF93DF93E7E490
:10199000F9E21282138288EE93E0A0E0B0E0848343
:1019A0009583A683B78346E65CE74083518320E2B4
:1019B00038E024873587168621E0278734E0308B8E
:1019C000128A138A148A158A3BE1368B178A108E85
:1019D0001092E0291092E129E2EEF9E212821382DC
:1019E00084839583A683B7834083518340E658E080
:1019F0004487558738E1368739E1378730E4308BC3
:101A0000128A138A148A158A36E2368B178A108E48
:101A100010927B2A10927C2AEDE7FAE2128213825E
:101A200084839583A683B78380E89CE78083918332
:101A3000C4EDDAE282E08D8386E18E832F831886FF
:101A400060910028709101288091022890910328CC
:101A500020E432E44FE050E00E94DB1BA8EEB3E04C
:101A60000E9413196D877E878F87988BDF91CF91A6
:101A70000895CF93DF93CDB7DEB76A97CDBFDEBFB2
:101A800088ED90E084BF9093610080E094E2A4EF41
:101A9000B0E08093002890930128A0930228B0938F
:101AA00003288091020686608093020680910006DA
:101AB000816080930006809102068F7C80930206ED
:101AC0008091A0008F788093A000809102068061B1
:101AD000809302061092E20581E08093E40583E0A2
:101AE0008093010A8FEF90E08093260A9093270A53
:101AF00080E890E08093380A9093390A80933A0AFC
:101B000090933B0A80933C0A90933D0A8BE080932C
:101B1000000A8091E50581608093E5058091E505E7
:101B200082608093E505E0E8FAE037E02FEF90E887
:101B300085E031832487958780837096E03C4AE076
:101B4000F407B9F780E094E080933D2990933E2913
:101B500080913D2990913E292FEF30E0B9010E94FC
:101B6000C71B60933B2970933C2980913D2990913C
:101B70003E29E8EEF3E0BF010E94C71B60933729BE
:101B80007093382980913D2990913E29BF010E9490
:101B9000C71B80933529909336292093BC0A309334
:101BA000BD0A8091B50A81608093B50A84E0809374
:101BB000B00A8091B00A81608093B00A789440E8BE
:101BC00055E260E070E082EE99E20E946D0840E824
:101BD00055E260E070E087E499E20E946D086BEDE9
:101BE0007CE782EE99E20E94E50862E070E0809175
:101BF000D92A0E9421032FB7F8948091432990910C
:101C00004429A0914529B09146292FBF805D974076
:101C1000A109B1098093DD2A9093DE2AA093DF2ADF
:101C2000B093E02A87E38093E62A8DE79AE20E9448
:101C3000330869E87AE28AEA0E94B907882309F43E
:101C40008DC26BE87AE28CEA0E94B907882309F416
:101C500085C26DE87AE28EEA0E94B907882309F40A
:101C60007DC269E97AE280EB0E949507882309F436
:101C700075C26BE97AE282EB0E949507882309F42A
:101C80006DC26DE97AE284EB0E949507882309F41E
:101C900065C26FE87AE286EB0E94B907882309F4EF
:101CA0005DC261E97AE288EB0E94B907882309F4F2
:101CB00055C263E97AE28AEB0E94B907882309F4E6
:101CC0004DC265E97AE28CEB0E94B907882309F4DA
:101CD00045C267E97AE28EEB0E94B907882309F4CE
:101CE0003DC260918D2A70918E2A072E000C880BC0
:101CF000990B0E94F61720E030E040EA5BE30E9477
:101D000055182B013C016091992A70919A2A90E014
:101D100080E00E94F4172FE632E143E053E30E9493
:101D200055186B017C0160918F2A7091902A072EC3
:101D3000000C880B990B0E94F61720E030E048EC6D
:101D400057E30E9455184B015C0160919B2A7091EA
:101D50009C2A90E080E00E94F4172DEC3CEC4CE4CF
:101D600054E30E94551860939F2A7093A02A809391
:101D7000A12A9093A22A60919D2A70919E2A90E0B8
:101D800080E00E94F4176093A32A7093A42A8093A2
:101D9000A52A9093A62A6091952A7091962A072EDB
:101DA000000C880B990B0E94F6172AE037ED43EAE6
:101DB0005DE30E9455186093A72A7093A82A809328
:101DC000A92A9093AA2A6091972A7091982A072E9F
:101DD000000C880B990B0E94F61720E030E040E2DF
:101DE00053E40E94CB196093AB2A7093AC2A809382
:101DF000AD2A9093AE2A6091892A70918A2A072E83
:101E0000000C880B990B0E94F6176093AF2A709311
:101E1000B02A8093B12A9093B22A60918B2A709154
:101E20008C2A072E000C880B990B0E94F61720E0D5
:101E300030E040EA5CE30E9455186093B32A709347
:101E4000B42A8093B52A9093B62A6091912A709112
:101E5000922A072E000C880B990B0E94F61720E09F
:101E600030E048E45AE30E9455186093B72A709313
:101E7000B82A8093B92A9093BA2A20E030E040E053
:101E800057E4C701B6010E9455186093BB2A7093AE
:101E9000BC2A8093BD2A9093BE2AA7019601C30154
:101EA000B2010E9455186093BF2A7093C02A809394
:101EB000C12A9093C22AA5019401C701B6010E94CC
:101EC00055186093C32A7093C42A8093C52A9093AF
:101ED000C62A8CEE91E5A7E1B0E48093C72A9093DF
:101EE000C82AA093C92AB093CA2A80E394E3AEE734
:101EF000BFE38093CB2A9093CC2AA093CD2AB093B2
:101F0000CE2A80E097E5A4E9B6E38093CF2A9093A8
:101F1000D02AA093D12AB093D22A64EE7CE782EE35
:101F200099E20E94E50870E060E087E00E942103EA
:101F300070E060E08EE00E94210314EF22242394DD
:101F400006EF82EE99E20E94E1086BE07DE782EE07
:101F500099E20E94E50820E042E55EEA69EA75E45C
:101F6000CE0101960E94200A20E040E050EE6EEC87
:101F700074E4CE0107960E94200A63E17DE7CE015A
:101F80000D960E94070ABE01695F7F4FCE010D9634
:101F90000E94CB0967E27DE70E94B509BE016F5F31
:101FA0007F4F0E94CB0961E37DE70E94B509BC0128
:101FB00082EE99E20E94F708CE010D960E94180A5F
:101FC000CE0107960E94180ACE0101960E94180AB7
:101FD00087E499E20E94E1086BE07DE787E499E2FB
:101FE0000E94E50820E042E55EEA69EA75E4CE0178
:101FF00001960E94200A20E040E050EE6EEC74E46E
:10200000CE0107960E94200A63E17DE7CE010D967E
:102010000E94070ABE01695F7F4FCE010D960E94A4
:10202000CB0967E27DE70E94B509BE016F5F7F4F74
:102030000E94CB0961E37DE70E94B509BC0187E4FA
:1020400099E20E94F708CE010D960E94180ACE016F
:1020500007960E94180ACE0101960E94180A198359
:102060008EE28A8367E78DE79AE20E941C0742E0CE
:1020700050E0BE016F5F7F4F8DE79AE20E94B50688
:102080008DE79AE20E94F5068093D32A67E37DE705
:1020900081111BC565E070E080E090E00E94CF03F5
:1020A000098362E0CE0101960E945507882309F456
:1020B0000AC579803A80C0909F2AD090A02AE090EB
:1020C000A12AF090A22A8090A32A9090A42AA090FE
:1020D000A52AB090A62A8091A72A9091A82AA0911B
:1020E000A92AB091AA2A8B8B9C8BAD8BBE8B809139
:1020F000AB2A9091AC2AA091AD2AB091AE2A8F8BD9
:10210000988FA98FBA8F19831A8367E78DE79AE2B0
:102110000E941C0742E050E0BE016F5F7F4F8DE7D9
:102120009AE20E94B5068DE79AE20E94F506809336
:10213000D32A6FE57DE78111C8C46AE170E080E0D1
:1021400090E00E94CF03098363E0CE0101960E94D4
:10215000550781110AC063E07FE7B7C468EF7CE7E9
:1021600082EE99E20E94E508FFCF672D70E090E0D3
:1021700080E00E94F61720E030E040E853E40E943F
:1021800055182B013C01632D70E090E080E00E9427
:10219000F6179B01AC01C301B2010E945F19A501B2
:1021A00094010E945E19A70196010E9455186B01C7
:1021B0007C012F89388D498D5A8D0E945F199B01B2
:1021C000AC016B897C898D899E890E94CB19A701FE
:1021D00096010E945F1920E030E048EC51E40E9433
:1021E0005E196B017C01AC019B010E9455184B01EB
:1021F0005C01698170E090E080E00E94F61720E0C9
:1022000030E040E853E40E9455182B013C016A81FC
:1022100070E090E080E00E94F6179B01AC01C301E2
:10222000B2010E945F192B013C016B8170E090E0CC
:1022300080E00E94F61720E030E040E85BE30E9477
:1022400055189B01AC01C301B2010E945F196B8B51
:102250007C8B8D8B9E8B2091B72A3091B82A409130
:10226000B92A5091BA2AC501B4010E9455182B0110
:102270003C012091B32A3091B42A4091B52A509163
:10228000B62AC701B6010E9455189B01AC01C301D3
:10229000B2010E945F192091AF2A3091B02A40917B
:1022A000B12A5091B22A0E945F199B01AC016B893F
:1022B0007C898D899E890E945E192B013C012091A9
:1022C000C32A3091C42A4091C52A5091C62AC5011B
:1022D000B4010E9455184B015C012091BF2A309136
:1022E000C02A4091C12A5091C22AC701B6010E945A
:1022F00055189B01AC01C501B4010E945F192091E2
:10230000BB2A3091BC2A4091BD2A5091BE2A0E941E
:102310005F199B01AC01C301B2010E94CB196B0193
:102320007C01AC019B010E9455182091CF2A30916D
:10233000D02A4091D12A5091D22A0E9455184B019F
:102340005C012091CB2A3091CC2A4091CD2A50912A
:10235000CE2AC701B6010E9455189B01AC01C501E8
:10236000B4010E945F192091C72A3091C82A409178
:10237000C92A5091CA2A0E945F196B017C0129EF7A
:102380003FEE41EF5CE30E9455184B015C0122E0F7
:10239000BC01A401CE0101960E94200A22E0B701EF
:1023A000A601CE0107960E94200A64E87DE7CE01CF
:1023B0000D960E94070ABE01695F7F4FCE010D9600
:1023C0000E94CB0968E97DE70E94B509BE016F5FF5
:1023D0007F4F0E94CB096EE97DE70E94B509BC01E1
:1023E00082EE99E20E94F708CE010D960E94180A2B
:1023F000CE0107960E94180ACE0101960E94180A83
:1024000022E0B501A401CE0101960E94200A22E03B
:10241000B701A601CE0107960E94200A64E87DE775
:10242000CE010D960E94070ABE01695F7F4FCE0163
:102430000D960E94CB0968E97DE70E94B509BE01AF
:102440006F5F7F4F0E94CB096EE97DE70E94B5095F
:10245000BC0187E499E20E94F708CE010D960E9424
:10246000180ACE0107960E94180ACE0101960E9412
:10247000180A27E53BE941E55FE3C701B6010E9481
:10248000CB194B015C0129EF3FEE41EF5CE30E9469
:1024900055182B013C0122E0BC01A201CE0101969E
:1024A0000E94200A22E0B501A401CE0107960E94F5
:1024B000200A64EA7DE7CE010D960E94070ABE015C
:1024C000695F7F4FCE010D960E94CB0968E97DE7D9
:1024D0000E94B509BE016F5F7F4F0E94CB096EE974
:1024E0007DE70E94B509BC0182EE99E20E94F708DF
:1024F000CE010D960E94180ACE0107960E94180A76
:10250000CE0101960E94180A22E0B301A201CE0179
:1025100001960E94200A22E0B501A401CE0107968F
:102520000E94200A64EA7DE7CE010D960E94070A08
:10253000BE01695F7F4FCE010D960E94CB0968E90D
:102540007DE70E94B509BE016F5F7F4F0E94CB09F6
:102550006EE97DE70E94B509BC0187E499E20E941B
:10256000F708CE010D960E94180ACE0107960E9428
:10257000180ACE0101960E94180AA5019401C7010C
:10258000B6010E94CB192EEA3CED42E45EE30E94C4
:102590003D1A9B01AC0160E070E080E89FE30E947F
:1025A0005E1920E03AE24DE257E40E9455186B01B3
:1025B0007C0120E0BC01A601CE0101960E94200A08
:1025C00064EC7DE7CE0107960E94070ABE016F5FAB
:1025D0007F4FCE0107960E94CB0967E27DE70E94FC
:1025E000B50970E060E00E94850961E37DE70E9423
:1025F000B509BC0182EE99E20E94F708CE01079668
:102600000E94180ACE0101960E94180A20E0B70124
:10261000A601CE0101960E94200A64EC7DE7CE015E
:1026200007960E94070ABE016F5F7F4FCE01079693
:102630000E94CB0967E27DE70E94B50970E060E087
:102640000E94850961E37DE70E94B509BC0187E42A
:1026500099E20E94F708CE0107960E94180ACE015F
:1026600001960E94180A0E94FF03882349F0809176
:10267000DA2A8B3028F08D3050F085518230C0F14D
:10268000812C912C20ECA22E2FE7B22E1EC060913F
:10269000D52A70E090E080E00E94F6172DEC3CEC2B
:1026A0004CEC5DE30E9455186B017C016091D42ACB
:1026B00070E090E080E00E94F6179B01AC01C7013A
:1026C000B6010E945F194B015C010E94FF03882341
:1026D00041F08091DA2A8C3009F4FFC0D8F48B30B5
:1026E00091F1C12CD12C80ECE82E8FE7F82E55C04B
:1026F0006091D42A7091D52A76276727762790E0B3
:1027000080E00E94F4172DEC3CEC4CEC5DE30E9461
:102710005518D9CF8551823020F77090D62A672D71
:1027200070E0762F662766277F778091D72A682BFF
:1027300090E080E00E94F4172DEC3CEC4CEC5DE363
:102740000E945518E6C06091D62A70E090E080E0C3
:102750000E94F4176B017C017090D72A77FE0AC0A3
:10276000AC019B0160E070E080E89FEB0E945E1985
:102770006B017C01672D6F7070E090E080E00E943B
:10278000F6172DEC3CEC4CEC5DE30E945518A701CC
:1027900096010E945F196B017C01A5019401C5019E
:1027A000B4010E948D1A882309F4BCC068ED7DE74E
:1027B00082EE99E20E94E50887E00E94B4028091CF
:1027C000080486958170809333291092342983E020
:1027D000809306062092080680910B0680FFFCCFAE
:1027E0002FB7F89490911006809111062FBF89277A
:1027F00098278927809331299093322969E27EE7CF
:1028000082EE99E20E947608609133297091342912
:10281000072E000C880B990B97FF4DC10E94C00832
:102820006AE37EE782EE99E20E94760860913129A0
:1028300070913229072E000C880B990B97FF3FC12E
:102840000E94C00882EE99E20E94E108809133293B
:102850009091342960E57EE7019711F06BE57EE702
:1028600082EE99E20E94E508809131299091322907
:102870009C012558334066E67EE72B373105A8F0EA
:102880009C012D5B324062E87EE7283C310568F010
:102890009C01255F314065E97EE7283C310528F041
:1028A000853F914034F46BEA7EE782EE99E20E9424
:1028B000E5086EEB7EE782EE99E20E94E50860EDA6
:1028C00077E080E090E00E94CF0380E090E0892BE9
:1028D00009F437CB0E94000034CB7090D62A672DC4
:1028E00070E090E080E00E94F4176B017C01609141
:1028F000D72A6F7070E090E080E00E94F6172DEC10
:102900003CEC4CEC5DE30E945518A70196010E9437
:102910005F196B017C0177FE40CFF7FAF094F7F86E
:10292000F0943BCF82EE99E20E94E1086AEF7DE7E6
:1029300082EE99E20E94E50822E0B701A601CE01ED
:1029400001960E94200A61E07EE7CE0107960E9470
:10295000070ABE016F5F7F4FCE0107960E94CB0929
:102960006FE07EE70E94B50963E17EE70E94B5094A
:1029700062E070E00E94850968E17EE70E94B50987
:10298000BC0182EE99E20E94F708CE0107960E94F0
:10299000180ACE0101960E94180A22E0B501A4018E
:1029A000CE0101960E94200A6CE17EE7CE010796D7
:1029B0000E94070ABE016F5F7F4FCE0107960E94FB
:1029C000CB0967E27EE70E94B509BC0182EE99E27D
:1029D0000E94F708CE0107960E94180ACE010196C0
:1029E0000E94180A82EE99E20E94E10887E499E2C7
:1029F0000E94E1086AEF7DE787E499E20E94E5081A
:102A000022E0B701A601CE0101960E94200A61E0F2
:102A10007EE7CE0107960E94070ABE016F5F7F4FD7
:102A2000CE0107960E94CB096FE07EE70E94B509B0
:102A300063E17EE70E94B50962E070E00E948509CB
:102A400068E17EE70E94B509BC0187E499E20E9433
:102A5000F708CE0107960E94180ACE0101960E943F
:102A6000180A22E0B501A401CE0101960E94200AB5
:102A70006CE17EE7CE0107960E94070ABE016F5FF8
:102A80007F4FCE0107960E94CB0967E27EE70E9446
:102A9000B509BC0187E499E20E94F708CE010796C8
:102AA0000E94180ACE0101960E94180A87E499E252
:102AB0000E94E10881CE4AE00E948008B1CE4AE03F
:102AC0000E948008BFCE69ED7EE782EE99E20E9407
:102AD000E508C9CDEF920F931F93CF93DF93E801E1
:102AE00034E047FD34E1042E000C550B57FF03C0C2
:102AF000519541955109E32E022F242FAE010E94DA
:102B0000AD15CE01DF91CF911F910F91EF900895F8
:102B1000BB274A3031F4992322F4BDE29095819588
:102B20009F4F0C949415BB27FB015527AA27880FAC
:102B3000991FAA1FA41710F0A41B83955051B9F731
:102B4000A05DAA3308F0A95DA193009779F7B111B0
:102B5000B1931192CB010C94E417A9E0B0E0E3EB40
:102B6000F5E10C9424196A01F22EB02E102FFBE32C
:102B7000AF2EA01608F41BE31F5F012F27E0AE0164
:102B80004F5F5F4F0E940C17BC018981982F99708D
:102B9000913009F43FC09BE2E1FC04C09E2D91708E
:102BA000E0FC3AC05E2D5071E82FE87083FF46C00C
:102BB00084E0911101C083E0EF2DE81B8F1508F030
:102BC000E0E0D6018E2F20E2552351F1992329F020
:102BD000D6019C93C60101966C0196012D5F3F4F73
:102BE000E2FE24C08EE4D6018C9391E411969C936E
:102BF000119712968C93D9018E2F90E281111BC0F0
:102C0000E20FF32FF11D10828EEF9FEF2996ECE07B
:102C10000C943D199DE2C6CF90E2C4CF2D93815014
:102C20008111FCCFCE0ED11CE0E0D0CF8EE6D601D4
:102C30008C9391E6DBCF9D938150E0CF482F447079
:102C400082FF3DC084E0911101C083E08F1510F434
:102C5000EF2DE81BD6018E2F20E2552309F1992391
:102C600029F0D6019C93C60101966C0196012D5F57
:102C70003F4FE2FE1BC089E4D6018C938EE411968F
:102C80008C93119786E412968C93D9018E2F90E243
:102C9000882309F4B5CF9D938150FACF2D938150AD
:102CA0008111FCCFCE0ED11CE0E0D9CF89E6D60150
:102CB0008C938EE611968C93119786E6E4CF9B0158
:102CC00077FF02C030E020E0A1E0B0E0911102C047
:102CD000B0E0A0E0F9013196AE0FBF1F8B2C912C14
:102CE000BB2009F461C05401EFEFAE1ABE0AAA0D71
:102CF000BB1DFA161B0619F014F04F2D4A1B51117B
:102D000088C0E3FC59C07601A42FB0E2A1114FC0E6
:102D1000C40ED11C992309F45BC040E0D601119682
:102D2000F60190836D01552309F448C0012F060F69
:102D30009A81582F507184FF03C0913309F40150D8
:102D400010160CF047C0093008F008E0EEE2FE2E45
:102D50005B01A01AB10885019194819491082F3FDD
:102D6000320729F4D601FC92F60131966F01621701
:102D7000730794F1021713077CF5DB01A21BB30B59
:102D8000AA24A394B12CAC0EBD1EAA0DBB1D119696
:102D90008C9121503109D601119628153905F4F08E
:102DA000F60180836D01DBCFB12CA12CA0CFF70100
:102DB000B1937F01A150AACF9111B0CFD601942F2A
:102DC00050E302C05D9391509111FCCFC40ED11C11
:102DD00040E0ACCF01E0BACF80E3DBCF62177307EE
:102DE00031F4963388F4953311F4552369F0F601E4
:102DF0008083FD01842F90E2811108C0A40FB11DD2
:102E00001C9290E080E002CF81E3F1CF919381505A
:102E1000F3CF911183CF8ACF283008F027E03327F2
:102E2000DA01990F311D87FD9160009661057105EA
:102E300039F432602E5F3D9330E32A95E1F708952F
:102E40009F3F30F080387105610509F03C5F3C5FC1
:102E50003D93913008F08068911DDF93CF931F93CD
:102E60000F93FF92EF92192F987F9695E92F9695E1
:102E70009695E90FFF27E458FE4F99273327EE2454
:102E8000FF24A701E70105900894079428F4360F62
:102E9000E71EF81E491F511D660F771F881F991FD7
:102EA0000694A1F70590079428F4E70EF81E491F31
:102EB000561FC11D770F881F991F661F0694A1F723
:102EC0000590079428F4F80E491F561FC71FD11DFF
:102ED000880F991F661F771F0694A1F70590079426
:102EE00020F4490F561FC71FD81F990F661F771F61
:102EF000881F0694A9F784911095177041F0D69514
:102F0000C79557954795F794E7941A95C1F7E2E26C
:102F1000F1E0689415901591359165919591059022
:102F20007FE27395E118F10A430B560BC90BD009E8
:102F3000C0F7E10CF11E431F561FC91FD01D7EF4C0
:102F4000703311F48A95E6CFE894015030F0080F01
:102F50000AF40027021708F4202F2395022F7A3352
:102F600028F079E37D932A95E9F710C07D932A959F
:102F700089F6069497956795379517951794E118F4
:102F8000F10A430B560BC90BD00998F023957E919B
:102F900073957A3308F070E37C932013B8F77E9131
:102FA00070617D9330F0839571E37D9370E32A9592
:102FB000E1F71124EF90FF900F911F91CF91DF91D6
:102FC000992787FD90950895DC01FC01672F719189
:102FD0007723E1F7329704C07C916D9370836291FF
:102FE000AE17BF07C8F30895E89409C097FB3EF4F5
:102FF00090958095709561957F4F8F4F9F4F992346
:10300000A9F0F92F96E9BB279395F69587957795C3
:103010006795B795F111F8CFFAF4BB0F11F460FF83
:103020001BC06F5F7F4F8F4F9F4F16C0882311F0DB
:1030300096E911C0772321F09EE8872F762F05C0EF
:10304000662371F096E8862F70E060E02AF09A958A
:10305000660F771F881FDAF7880F9695879597F97F
:103060000895990F0008550FAA0BE0E8FEEF161619
:103070001706E807F907C0F012161306E407F5076C
:1030800098F0621B730B840B950B39F40A2661F0E0
:10309000232B242B252B21F408950A2609F4A14083
:1030A000A6958FEF811D811D08950E9468180C94CC
:1030B000D9180E94CB1838F00E94D21820F095231E
:1030C00011F00C94C2180C94C81811240C940D190A
:1030D0000E94EA1870F3959FC1F3950F50E0551FB9
:1030E000629FF001729FBB27F00DB11D639FAA275D
:1030F000F00DB11DAA1F649F6627B00DA11D661FAC
:10310000829F2227B00DA11D621F739FB00DA11DCC
:10311000621F839FA00D611D221F749F3327A00D86
:10312000611D231F849F600D211D822F762F6A2F22
:1031300011249F5750409AF0F1F088234AF0EE0F87
:10314000FF1FBB1F661F771F881F91505040A9F7B4
:103150009E3F510580F00C94C2180C940D195F3FEE
:10316000E4F3983ED4F3869577956795B795F795F0
:10317000E7959F5FC1F7FE2B880F911D9695879568
:1031800097F9089597F99F6780E870E060E00895E7
:103190009FEF80EC089500240A941616170618066F
:1031A0000906089500240A9412161306140605064B
:1031B0000895092E0394000C11F4882352F0BB0FDC
:1031C00040F4BF2B11F460FF04C06F5F7F4F8F4F3F
:1031D0009F4F089557FD9058440F551F59F05F3F7A
:1031E00071F04795880F97FB991F61F09F3F79F029
:1031F00087950895121613061406551FF2CF4695AB
:10320000F1DF08C0161617061806991FF1CF86952C
:103210007105610508940895E894BB276627772710
:10322000CB0197F908950E944F19A59F900DB49F67
:10323000900DA49F800D911D112408952F923F920F
:103240004F925F926F927F928F929F92AF92BF92B6
:10325000CF92DF92EF92FF920F931F93CF93DF9362
:10326000CDB7DEB7CA1BDB0BCDBFDEBF09942A8802
:10327000398848885F846E847D848C849B84AA848A
:10328000B984C884DF80EE80FD800C811B81AA8117
:10329000B981CE0FD11DCDBFDEBFED010895A29F34
:1032A000B001B39FC001A39F700D811D1124911D1A
:1032B000B29F700D811D1124911D08955058BB2798
:1032C000AA270E9476190C94D9180E94CB1838F0BE
:1032D0000E94D21820F039F49F3F19F426F40C9480
:1032E000C8180EF4E095E7FB0C94C218E92F0E9471
:1032F000EA1858F3BA17620773078407950720F096
:1033000079F4A6F50C940C190EF4E0950B2EBA2F57
:10331000A02D0B01B90190010C01CA01A0011124DB
:10332000FF27591B99F0593F50F4503E68F11A1687
:10333000F040A22F232F342F4427585FF3CF469518
:1033400037952795A795F0405395C9F77EF41F163A
:10335000BA0B620B730B840BBAF09150A1F0FF0F04
:10336000BB1F661F771F881FC2F70EC0BA0F621FF0
:10337000731F841F48F4879577956795B795F795E0
:103380009E3F08F0B0CF9395880F08F09927EE0F75
:103390009795879508950E94DF190C94D9180E947B
:1033A000D21858F00E94CB1840F029F45F3F29F062
:1033B0000C94C21851110C940D190C94C8180E9449
:1033C000EA1868F39923B1F3552391F3951B550B34
:1033D000BB27AA2762177307840738F09F5F5F4FE8
:1033E000220F331F441FAA1FA9F335D00E2E3AF027
:1033F000E0E832D091505040E695001CCAF72BD03F
:10340000FE2F29D0660F771F881FBB1F261737078F
:103410004807AB07B0E809F0BB0B802DBF01FF27C1
:1034200093585F4F3AF09E3F510578F00C94C218C4
:103430000C940D195F3FE4F3983ED4F3869577958D
:103440006795B795F7959F5FC9F7880F911D96957A
:10345000879597F90895E1E0660F771F881FBB1FD6
:10346000621773078407BA0720F0621B730B840B83
:10347000BA0BEE1F88F7E0950895FA01EE0FFF1FD3
:10348000309621053105A1F16115710561F480388F
:10349000BFE39B0749F168949038810561F080385B
:1034A000BFEF9B0741F099234AF5FF3FE105310546
:1034B000210519F1E8940894E795D901AA2329F484
:1034C000AB2FBE2FF85FD0F310C0FF5F70F4A6954E
:1034D000E0F7F73950F019F0FF3A38F49F779F93EF
:1034E0000DD00F9007FC9058089546F00C94C81822
:1034F00060E070E080E89FE308954FE79F775F9377
:103500004F933F932F930E943D1B2F913F914F91DB
:103510005F910E9455180C949A1A0E943118880BDA
:10352000990B089529F416F00C94C2180C940C19F8
:103530000C94C8180E94F218A8F39638A0F707F860
:103540000F92E8942BE33AEA48EB5FE70E946B188E
:103550000F920F920F924DB75EB70F920E94851B8C
:10356000E0EAF0E00E94CC1A4F915F91EF91FF9159
:10357000E595EE1FFF1F49F0FE57E0684427EE0F68
:10358000441FFA95E1F74195550B0E94FF1A0F90E1
:1035900007FE0C94F31A0895DF93CF931F930F93B4
:1035A000FF92EF92DF927B018C01689406C0DA2EC5
:1035B000EF010E946818FE01E894A59125913591CC
:1035C00045915591A6F3EF010E947619FE019701EE
:1035D000A801DA9469F7DF90EF90FF900F911F91A7
:1035E000CF91DF9108959B01AC0160E070E080E82D
:1035F0009FE30C94CB190C94C2180C94B91B0E9435
:10360000F218D8F39923C9F3940F511DA3F39150E5
:10361000504094F059F0882332F0660F771F881FCE
:1036200091505040C1F79E3F51052CF7880F911DD6
:103630009695879597F908955F3FACF0983E9CF07A
:10364000BB27869577956795B79508F4B1609395F4
:10365000C1F7BB0F58F711F460FFE8CF6F5F7F4FE2
:103660008F4F9F4FE3CF0C940D1916F00C94B91B9C
:103670000C94C81868940C94C2180E94F218A8F30D
:103680009923C1F3AEF3DF93CF931F930F93FF9270
:10369000C92FDD2788232AF02197660F771F881FFF
:1036A000DAF720E030E040E85FEB9FE3883920F074
:1036B000803E38F021968F770E945F19E8ECF0E0A9
:1036C00004C00E945F19E5EFF0E00E94CC1A8B0164
:1036D000BE01EC01FB2E6F5771097595771F880BA2
:1036E000990B0E94F61728E132E741E35FE30E945D
:1036F0006818AF2D9801AE01FF900F911F91CF91E7
:10370000DF910E9476190C94D918FA01DC01AA0FF6
:10371000BB1F9B01AC01BF5728F422273327442746
:10372000507820C0B75190F4AB2F002446953795C0
:103730002795011CA395D2F3002071F0220F331FAF
:10374000441FB395DAF30ED00C945E196130710505
:10375000A0E88A07B94630F49B01AC0166277727B9
:1037600088279078309621F02083318342835383D9
:1037700008959F3F31F0915020F487957795679594
:10378000B795880F911D9695879597F90895AA1B6F
:10379000BB1B51E107C0AA1FBB1FA617B70710F03C
:1037A000A61BB70B881F991F5A95A9F7809590956E
:1037B000BC01CD010895A1E21A2EAA1BBB1BFD017D
:1037C0000DC0AA1FBB1FEE1FFF1FA217B307E40700
:1037D000F50720F0A21BB30BE40BF50B661F771F58
:1037E000881F991F1A9469F7609570958095909538
:1037F0009B01AC01BD01CF010895052E97FB1EF47E
:1038000000940E94141C57FD07D00E94DB1B07FC8C
:1038100003D04EF40C94141C50954095309521958E
:103820003F4F4F4F5F4F08959095809570956195EC
:103830007F4F8F4F9F4F0895B7FF0C9413190E942D
:103840001319821B930B0895EE0FFF1F0590F4913F
:10385000E02D09940F931F93CF93DF93823091054E
:1038600010F482E090E0E091E92AF091EA2A30E059
:1038700020E0B0E0A0E0309799F42115310509F47B
:103880004AC0281B390B24303105D8F58A819B8129
:103890006115710589F1FB0182839383FE0111C0DB
:1038A000408151810281138148175907E0F0481780
:1038B000590799F4109761F012960C93129713968A
:1038C0001C933296CF01DF91CF911F910F910895F4
:1038D0000093E92A1093EA2AF4CF2115310551F01B
:1038E0004217530738F0A901DB019A01BD01DF013E
:1038F000F801C1CFEF01F9CF8093E92A9093EA2A2A
:10390000CDCFFE01E20FF31F819391932250310935
:1039100028833983D7CF2091E72A3091E82A232BB7
:1039200041F420910628309107282093E72A30930C
:10393000E82A20910428309105282115310541F409
:103940002DB73EB74091082850910928241B350B0C
:10395000E091E72AF091E82AE217F307A0F42E1B82
:103960003F0B2817390778F0AC014E5F5F4F2417E3
:10397000350748F04E0F5F1F4093E72A5093E82A1F
:10398000819391939FCFF0E0E0E09CCFCF93DF93C2
:103990000097E9F0FC01329712821382A091E92A84
:1039A000B091EA2AED0130E020E01097A1F42081E7
:1039B0003181820F931F2091E72A3091E82A28173E
:1039C000390709F061C0E093E72AF093E82ADF9114
:1039D000CF910895EA01CE17DF07E8F54A815B81B0
:1039E0009E0141155105B1F7E901EA83FB83499135
:1039F0005991C40FD51FEC17FD0761F480819181A7
:103A00000296840F951FE9018883998382819381AF
:103A10008A839B83F0E0E0E012968D919C9113974E
:103A20000097B9F52D913C911197CD010296820F27
:103A3000931F2091E72A3091E82A2817390739F691
:103A4000309751F51092E92A1092EA2AA093E72ABA
:103A5000B093E82ABCCFC283D38340815181840FC5
:103A6000951FC817D90761F44E5F5F4F8881998110
:103A7000480F591F408351838A819B81828393839E
:103A80002115310509F0B0CFE093E92AF093EA2A35
:103A90009ECFFD01DC01C0CF12821382D7CFB0E0F0
:103AA000A0E0E5E5FDE10C9420198C01009751F4AC
:103AB000CB010E942A1C8C01C801CDB7DEB7E0E122
:103AC0000C943919FC01E60FF71F9C0122503109B3
:103AD000E217F30708F49DC0D901CD91DC9111974D
:103AE000C617D70798F0C530D10530F3CE0104973B
:103AF0008617970708F3C61BD70B2297C193D1935C
:103B00006D937C93CF010E94C61CD6CF5B01AC1A8B
:103B1000BD0A4C018C0E9D1EA091E92AB091EA2AA3
:103B2000512C412CF12CE12C109731F58091E72A92
:103B30009091E82A8815990509F05CC04616570649
:103B400008F058C08091042890910528009741F40E
:103B50008DB79EB74091082850910928841B950B7A
:103B6000E817F90708F055C0E093E72AF093E82A30
:103B7000F90160837183A0CF8D919C91119712966A
:103B80006C90129713967C901397A815B90559F568
:103B90006C0142E0C40ED11CCA14DB0420F1AC015C
:103BA0004A195B09DA011296159780F062827382D6
:103BB00040835183D9016D937C93E114F10471F03A
:103BC000D7011296ED93FC93139776CF22968C0F24
:103BD0009D1FF90180839183F301EFCFE093E92AE0
:103BE000F093EA2A69CF4816590608F42C017D01A2
:103BF000D3019ACFCB010E942A1C7C01009749F087
:103C0000AE01B8010E940C1EC8010E94C61C8701AB
:103C100053CF10E000E050CFFB01DC0102C0019067
:0E3C20000D9241505040D8F70895F894FFCF10
:103C2E00000000030001020000010100000000007E
:103C3E000000000000000000000005040005060260
:103C4E000401030001000102030201000203040546
:103C5E0002030504000000000B020E0570015C0259
:103C6E00A1017F0193016D082603AD0160050000DF
:103C7E000000DA06B5066A088B06AE069B068C06B1
:103C8E003308EE07E107DD071C07FD06F5062B07D7
:103C9E00230764065F060202000502010500040107
:103CAE0001040404030303030505030300000101DB
:103CBE002010012040041002080102010204080431
:103CCE00020104081020040820100D0A005354416C
:103CDE005254494E4700424D5031383020696E697A
:103CEE0074207375636365737300424D50313830C1
:103CFE0020696E6974206661696C0A0A00424D5033
:103D0E00313830230050726F766964656420616CBF
:103D1E007469747564653A2000206D6574657273FC
:103D2E002C20002066656574006572726F722073B8
:103D3E0074617274696E672074656D7065726174FA
:103D4E00757265206D6561737572656D656E740A49
:103D5E00006572726F72207374617274696E67207F
:103D6E007072657373757265206D656173757265BA
:103D7E006D656E740A004162736F6C7574652070A8
:103D8E00726573737572653A2000206D622C200087
:103D9E0020696E48670052656C61746976652028EB
:103DAE007365612D6C6576656C2920707265737311
:103DBE007572653A2000436F6D707574656420618D
:103DCE006C7469747564653A20004661696C65644B
:103DDE0020746F20726561642066726F6D20444896
:103DEE005432322073656E736F7221004448543220
:103DFE0032230054656D70657261747572653A2078
:103E0E0000C2B04300202F2F200046C2B0004875DC
:103E1E006D69646974793A2000250056616C6F7281
:103E2E00206469676974616C203A2000202D205649
:103E3E00616C6F7220616E616C6F6769636F203A9F
:103E4E00200043687576613A204E616F00436875B5
:103E5E0076613A2053696D00496E74656E736964BC
:103E6E006164653A202D2D2D2D20284E656E6875C6
:103E7E006D612900496E74656E7369646164653A9B
:103E8E0020467261636100496E74656E7369646188
:103E9E0064653A204D6F64657261646100496E74A9
:103EAE00656E7369646164653A20466F727465006D
:103EBE002D2D2D2D2D2D2D2D2D2D2D2D2D2D2D2D24
:103ECE002D2D2D2D2D2D2D2D2D2D006572726F72F8
:103EDE002072657472696576696E672074656D709F
:103EEE0065726174757265206D6561737572656D4D
:103EFE00656E740A006572726F72207265747269F3
:103F0E006576696E67207072657373757265206D64
:0C3F1E006561737572656D656E740A0054
:0A3F2A000024F4000000EB2A8000E0
:00000001FF
